{
  "contractName": "UserProfile",
  "abi": [
    {
      "inputs": [],
      "stateMutability": "nonpayable",
      "type": "constructor"
    },
    {
      "anonymous": false,
      "inputs": [
        {
          "indexed": true,
          "internalType": "address",
          "name": "user",
          "type": "address"
        },
        {
          "indexed": false,
          "internalType": "uint256",
          "name": "newAge",
          "type": "uint256"
        }
      ],
      "name": "AgeUpdated",
      "type": "event"
    },
    {
      "anonymous": false,
      "inputs": [
        {
          "indexed": true,
          "internalType": "address",
          "name": "user",
          "type": "address"
        },
        {
          "indexed": false,
          "internalType": "uint256",
          "name": "amount",
          "type": "uint256"
        }
      ],
      "name": "BalanceDeposited",
      "type": "event"
    },
    {
      "anonymous": false,
      "inputs": [
        {
          "indexed": true,
          "internalType": "address",
          "name": "user",
          "type": "address"
        },
        {
          "indexed": false,
          "internalType": "uint256",
          "name": "amount",
          "type": "uint256"
        }
      ],
      "name": "BalanceWithdrawn",
      "type": "event"
    },
    {
      "anonymous": false,
      "inputs": [
        {
          "indexed": true,
          "internalType": "address",
          "name": "user",
          "type": "address"
        },
        {
          "indexed": false,
          "internalType": "string",
          "name": "newName",
          "type": "string"
        }
      ],
      "name": "NameUpdated",
      "type": "event"
    },
    {
      "inputs": [
        {
          "internalType": "address",
          "name": "",
          "type": "address"
        }
      ],
      "name": "ages",
      "outputs": [
        {
          "internalType": "uint256",
          "name": "",
          "type": "uint256"
        }
      ],
      "stateMutability": "view",
      "type": "function",
      "constant": true
    },
    {
      "inputs": [
        {
          "internalType": "address",
          "name": "",
          "type": "address"
        }
      ],
      "name": "balances",
      "outputs": [
        {
          "internalType": "uint256",
          "name": "",
          "type": "uint256"
        }
      ],
      "stateMutability": "view",
      "type": "function",
      "constant": true
    },
    {
      "inputs": [
        {
          "internalType": "address",
          "name": "",
          "type": "address"
        }
      ],
      "name": "names",
      "outputs": [
        {
          "internalType": "string",
          "name": "",
          "type": "string"
        }
      ],
      "stateMutability": "view",
      "type": "function",
      "constant": true
    },
    {
      "inputs": [],
      "name": "owner",
      "outputs": [
        {
          "internalType": "address",
          "name": "",
          "type": "address"
        }
      ],
      "stateMutability": "view",
      "type": "function",
      "constant": true
    },
    {
      "inputs": [
        {
          "internalType": "string",
          "name": "_name",
          "type": "string"
        },
        {
          "internalType": "uint256",
          "name": "_age",
          "type": "uint256"
        }
      ],
      "name": "setUserProfile",
      "outputs": [],
      "stateMutability": "nonpayable",
      "type": "function"
    },
    {
      "inputs": [
        {
          "internalType": "address",
          "name": "_user",
          "type": "address"
        }
      ],
      "name": "getUserProfile",
      "outputs": [
        {
          "internalType": "string",
          "name": "",
          "type": "string"
        },
        {
          "internalType": "uint256",
          "name": "",
          "type": "uint256"
        }
      ],
      "stateMutability": "view",
      "type": "function",
      "constant": true
    },
    {
      "inputs": [],
      "name": "depositBalance",
      "outputs": [],
      "stateMutability": "payable",
      "type": "function",
      "payable": true
    },
    {
      "inputs": [
        {
          "internalType": "address",
          "name": "_user",
          "type": "address"
        }
      ],
      "name": "getBalance",
      "outputs": [
        {
          "internalType": "uint256",
          "name": "",
          "type": "uint256"
        }
      ],
      "stateMutability": "view",
      "type": "function",
      "constant": true
    },
    {
      "inputs": [
        {
          "internalType": "uint256",
          "name": "_amount",
          "type": "uint256"
        }
      ],
      "name": "withdrawBalance",
      "outputs": [],
      "stateMutability": "nonpayable",
      "type": "function"
    },
    {
      "inputs": [],
      "name": "getOwner",
      "outputs": [
        {
          "internalType": "address",
          "name": "",
          "type": "address"
        }
      ],
      "stateMutability": "view",
      "type": "function",
      "constant": true
    },
    {
      "inputs": [],
      "name": "withdrawContractBalance",
      "outputs": [],
      "stateMutability": "nonpayable",
      "type": "function"
    }
  ],
  "bytecode": "0x608060405234801561001057600080fd5b50600080546001600160a01b03191633179055610a1b806100326000396000f3fe60806040526004361061009c5760003560e01c80638da5cb5b116100645780638da5cb5b14610177578063987ee15614610197578063b48a8856146101c5578063bfab3db9146101e5578063da76d5cd146101fa578063f8b2cb4f1461021a57600080fd5b806327e235e3146100a15780635cf3d346146100e157806361bc1a491461010e578063893d20e8146101185780638c9503a21461014a575b600080fd5b3480156100ad57600080fd5b506100ce6100bc3660046106cb565b60036020526000908152604090205481565b6040519081526020015b60405180910390f35b3480156100ed57600080fd5b506101016100fc3660046106cb565b610250565b6040516100d89190610741565b6101166102ea565b005b34801561012457600080fd5b506000546001600160a01b03165b6040516001600160a01b0390911681526020016100d8565b34801561015657600080fd5b506100ce6101653660046106cb565b60026020526000908152604090205481565b34801561018357600080fd5b50600054610132906001600160a01b031681565b3480156101a357600080fd5b506101b76101b23660046106cb565b61039a565b6040516100d8929190610754565b3480156101d157600080fd5b506101166101e036600461078c565b610459565b3480156101f157600080fd5b506101166104f6565b34801561020657600080fd5b50610116610215366004610841565b6105eb565b34801561022657600080fd5b506100ce6102353660046106cb565b6001600160a01b031660009081526003602052604090205490565b600160205260009081526040902080546102699061085a565b80601f01602080910402602001604051908101604052809291908181526020018280546102959061085a565b80156102e25780601f106102b7576101008083540402835291602001916102e2565b820191906000526020600020905b8154815290600101906020018083116102c557829003601f168201915b505050505081565b6000341161033f5760405162461bcd60e51b815260206004820152601d60248201527f416d6f756e74206d7573742062652067726561746572207468616e203000000060448201526064015b60405180910390fd5b336000908152600360205260408120805434929061035e9084906108aa565b909155505060405134815233907f35127daa9a364433b8c0088167a66055c055f07c5aca9b104d84c51bd7a367de9060200160405180910390a2565b6001600160a01b03811660009081526001602090815260408083206002909252822054815460609392919082906103d09061085a565b80601f01602080910402602001604051908101604052809291908181526020018280546103fc9061085a565b80156104495780601f1061041e57610100808354040283529160200191610449565b820191906000526020600020905b81548152906001019060200180831161042c57829003601f168201915b5050505050915091509150915091565b3360009081526001602052604090206104728382610912565b503360008181526002602052604090819020839055517f74321da206c1b9fa34367f7ece59ca49371dcd13820b9a5c3767ae1ecceed51a906104b5908590610741565b60405180910390a260405181815233907f34a480ab8d3eeba69e675cd63db9f074267fe9a747424fe52fa3efa0e2b8f9199060200160405180910390a25050565b6000546001600160a01b0316331461055e5760405162461bcd60e51b815260206004820152602560248201527f4f6e6c7920746865206f776e65722063616e2063616c6c20746869732066756e60448201526431ba34b7b760d91b6064820152608401610336565b600047116105ae5760405162461bcd60e51b815260206004820152601760248201527f436f6e747261637420686173206e6f2062616c616e63650000000000000000006044820152606401610336565b600080546040516001600160a01b03909116914780156108fc02929091818181858888f193505050501580156105e8573d6000803e3d6000fd5b50565b336000908152600360205260409020548111156106415760405162461bcd60e51b8152602060048201526014602482015273496e73756666696369656e742062616c616e636560601b6044820152606401610336565b33600090815260036020526040812080548392906106609084906109d2565b9091555050604051339082156108fc029083906000818181858888f19350505050158015610692573d6000803e3d6000fd5b5060405181815233907fddc398b321237a8d40ac914388309c2f52a08c134e4dc4ce61e32f57cb7d80f19060200160405180910390a250565b6000602082840312156106dd57600080fd5b81356001600160a01b03811681146106f457600080fd5b9392505050565b6000815180845260005b8181101561072157602081850181015186830182015201610705565b506000602082860101526020601f19601f83011685010191505092915050565b6020815260006106f460208301846106fb565b60408152600061076760408301856106fb565b90508260208301529392505050565b634e487b7160e01b600052604160045260246000fd5b6000806040838503121561079f57600080fd5b823567ffffffffffffffff808211156107b757600080fd5b818501915085601f8301126107cb57600080fd5b8135818111156107dd576107dd610776565b604051601f8201601f19908116603f0116810190838211818310171561080557610805610776565b8160405282815288602084870101111561081e57600080fd5b826020860160208301376000602093820184015298969091013596505050505050565b60006020828403121561085357600080fd5b5035919050565b600181811c9082168061086e57607f821691505b60208210810361088e57634e487b7160e01b600052602260045260246000fd5b50919050565b634e487b7160e01b600052601160045260246000fd5b808201808211156108bd576108bd610894565b92915050565b601f82111561090d57600081815260208120601f850160051c810160208610156108ea5750805b601f850160051c820191505b81811015610909578281556001016108f6565b5050505b505050565b815167ffffffffffffffff81111561092c5761092c610776565b6109408161093a845461085a565b846108c3565b602080601f831160018114610975576000841561095d5750858301515b600019600386901b1c1916600185901b178555610909565b600085815260208120601f198616915b828110156109a457888601518255948401946001909101908401610985565b50858210156109c25787850151600019600388901b60f8161c191681555b5050505050600190811b01905550565b818103818111156108bd576108bd61089456fea2646970667358221220903af57ea303537868420063cfdc3e8aebb6a1f13ef653ef6c8a559c945afe7a64736f6c63430008130033",
  "immutableReferences": {},
  "source": "// SPDX-License-Identifier: MIT\r\npragma solidity ^0.8.19;\r\n\r\n/**\r\n * @title UserProfile\r\n * @dev A simple smart contract to manage user profiles with name, age, and balance\r\n */\r\ncontract UserProfile {\r\n    // State variables\r\n    address public owner;\r\n    mapping(address => string) public names;\r\n    mapping(address => uint256) public ages;\r\n    mapping(address => uint256) public balances;\r\n    \r\n    // Events\r\n    event NameUpdated(address indexed user, string newName);\r\n    event AgeUpdated(address indexed user, uint256 newAge);\r\n    event BalanceDeposited(address indexed user, uint256 amount);\r\n    event BalanceWithdrawn(address indexed user, uint256 amount);\r\n    \r\n    // Constructor\r\n    constructor() {\r\n        owner = msg.sender;\r\n    }\r\n    \r\n    // Modifier to check if the caller is the owner\r\n    modifier onlyOwner() {\r\n        require(msg.sender == owner, \"Only the owner can call this function\");\r\n        _;\r\n    }\r\n    \r\n    /**\r\n     * @dev Set or update the user's name\r\n     * @param _name The new name for the user\r\n     */\r\n    function setUserProfile(string memory _name, uint256 _age) public {\r\n        names[msg.sender] = _name;\r\n        ages[msg.sender] = _age;\r\n        emit NameUpdated(msg.sender, _name);\r\n        emit AgeUpdated(msg.sender, _age);\r\n    }\r\n    \r\n    /**\r\n     * @dev Get the user's name and age\r\n     * @return The user's name and age\r\n     */\r\n    function getUserProfile(address _user) public view returns (string memory, uint256) {\r\n        return (names[_user], ages[_user]);\r\n    }\r\n    \r\n    /**\r\n     * @dev Deposit balance to the user's account\r\n     */\r\n    function depositBalance() public payable {\r\n        require(msg.value > 0, \"Amount must be greater than 0\");\r\n        balances[msg.sender] += msg.value;\r\n        emit BalanceDeposited(msg.sender, msg.value);\r\n    }\r\n    \r\n    /**\r\n     * @dev Get the user's balance\r\n     * @param _user The address to check\r\n     * @return The user's balance\r\n     */\r\n    function getBalance(address _user) public view returns (uint256) {\r\n        return balances[_user];\r\n    }\r\n    \r\n    /**\r\n     * @dev Withdraw the user's balance\r\n     * @param _amount The amount to withdraw\r\n     */\r\n    function withdrawBalance(uint256 _amount) public {\r\n        require(balances[msg.sender] >= _amount, \"Insufficient balance\");\r\n        balances[msg.sender] -= _amount;\r\n        payable(msg.sender).transfer(_amount);\r\n        emit BalanceWithdrawn(msg.sender, _amount);\r\n    }\r\n    \r\n    /**\r\n     * @dev Get contract owner\r\n     * @return The address of the owner\r\n     */\r\n    function getOwner() public view returns (address) {\r\n        return owner;\r\n    }\r\n    \r\n    /**\r\n     * @dev Withdraw all contract balance (only owner)\r\n     */\r\n    function withdrawContractBalance() public onlyOwner {\r\n        require(address(this).balance > 0, \"Contract has no balance\");\r\n        payable(owner).transfer(address(this).balance);\r\n    }\r\n}\r\n\r\n",
  "sourcePath": "C:\\Users\\PC\\OneDrive\\Desktop\\23i-5572_Eman_Faris_Assignment_03\\contracts\\UserProfile.sol",
  "compiler": {
    "name": "solc",
    "version": "0.8.19+commit.7dd6d404.Emscripten.clang"
  },
  "schemaVersion": "3.4.16",
  "updatedAt": "2025-10-28T10:40:06.975Z",
  "networkType": "ethereum",
  "devdoc": {
    "details": "A simple smart contract to manage user profiles with name, age, and balance",
    "kind": "dev",
    "methods": {
      "depositBalance()": {
        "details": "Deposit balance to the user's account"
      },
      "getBalance(address)": {
        "details": "Get the user's balance",
        "params": {
          "_user": "The address to check"
        },
        "returns": {
          "_0": "The user's balance"
        }
      },
      "getOwner()": {
        "details": "Get contract owner",
        "returns": {
          "_0": "The address of the owner"
        }
      },
      "getUserProfile(address)": {
        "details": "Get the user's name and age",
        "returns": {
          "_0": "The user's name and age"
        }
      },
      "setUserProfile(string,uint256)": {
        "details": "Set or update the user's name",
        "params": {
          "_name": "The new name for the user"
        }
      },
      "withdrawBalance(uint256)": {
        "details": "Withdraw the user's balance",
        "params": {
          "_amount": "The amount to withdraw"
        }
      },
      "withdrawContractBalance()": {
        "details": "Withdraw all contract balance (only owner)"
      }
    },
    "title": "UserProfile",
    "version": 1
  },
  "userdoc": {
    "kind": "user",
    "methods": {},
    "version": 1
  }
}